{
  "contractName": "ESGDataStorage",
  "abi": [
    {
      "anonymous": false,
      "inputs": [
        {
          "indexed": false,
          "internalType": "string",
          "name": "firmName",
          "type": "string"
        },
        {
          "indexed": false,
          "internalType": "uint256",
          "name": "date",
          "type": "uint256"
        },
        {
          "indexed": false,
          "internalType": "uint256",
          "name": "carbonEmissions",
          "type": "uint256"
        },
        {
          "indexed": false,
          "internalType": "uint256",
          "name": "energyEfficiency",
          "type": "uint256"
        }
      ],
      "name": "ESGDataUpdated",
      "type": "event"
    },
    {
      "inputs": [
        {
          "internalType": "string",
          "name": "_firmName",
          "type": "string"
        },
        {
          "internalType": "uint256",
          "name": "_date",
          "type": "uint256"
        },
        {
          "internalType": "uint256",
          "name": "_carbonEmissions",
          "type": "uint256"
        },
        {
          "internalType": "uint256",
          "name": "_energyEfficiency",
          "type": "uint256"
        }
      ],
      "name": "updateESGData",
      "outputs": [],
      "stateMutability": "nonpayable",
      "type": "function"
    },
    {
      "inputs": [
        {
          "internalType": "string",
          "name": "_firmName",
          "type": "string"
        }
      ],
      "name": "getESGData",
      "outputs": [
        {
          "internalType": "uint256",
          "name": "date",
          "type": "uint256"
        },
        {
          "internalType": "uint256",
          "name": "carbonEmissions",
          "type": "uint256"
        },
        {
          "internalType": "uint256",
          "name": "energyEfficiency",
          "type": "uint256"
        }
      ],
      "stateMutability": "view",
      "type": "function",
      "constant": true
    }
  ],
  "bytecode": "0x608060405234801561000f575f80fd5b5061064b8061001d5f395ff3fe608060405234801561000f575f80fd5b5060043610610034575f3560e01c8063653875b1146100385780636f0d524a14610054575b5f80fd5b610052600480360381019061004d9190610368565b610086565b005b61006e600480360381019061006991906103e8565b610120565b60405161007d9392919061043e565b60405180910390f35b6040518060600160405280848152602001838152602001828152505f856040516100b091906104df565b90815260200160405180910390205f820151815f015560208201518160010155604082015181600201559050507fdb138e729175c2f0be78a75b4bc96388144acb7005f913fbc22362cef6abeaa884848484604051610112949392919061053d565b60405180910390a150505050565b5f805f805f8560405161013391906104df565b90815260200160405180910390205f015403610184576040517f08c379a000000000000000000000000000000000000000000000000000000000815260040161017b906105f7565b60405180910390fd5b5f808560405161019491906104df565b90815260200160405180910390206040518060600160405290815f8201548152602001600182015481526020016002820154815250509050805f015181602001518260400151935093509350509193909250565b5f604051905090565b5f80fd5b5f80fd5b5f80fd5b5f80fd5b5f601f19601f8301169050919050565b7f4e487b71000000000000000000000000000000000000000000000000000000005f52604160045260245ffd5b61024782610201565b810181811067ffffffffffffffff8211171561026657610265610211565b5b80604052505050565b5f6102786101e8565b9050610284828261023e565b919050565b5f67ffffffffffffffff8211156102a3576102a2610211565b5b6102ac82610201565b9050602081019050919050565b828183375f83830152505050565b5f6102d96102d484610289565b61026f565b9050828152602081018484840111156102f5576102f46101fd565b5b6103008482856102b9565b509392505050565b5f82601f83011261031c5761031b6101f9565b5b813561032c8482602086016102c7565b91505092915050565b5f819050919050565b61034781610335565b8114610351575f80fd5b50565b5f813590506103628161033e565b92915050565b5f805f80608085870312156103805761037f6101f1565b5b5f85013567ffffffffffffffff81111561039d5761039c6101f5565b5b6103a987828801610308565b94505060206103ba87828801610354565b93505060406103cb87828801610354565b92505060606103dc87828801610354565b91505092959194509250565b5f602082840312156103fd576103fc6101f1565b5b5f82013567ffffffffffffffff81111561041a576104196101f5565b5b61042684828501610308565b91505092915050565b61043881610335565b82525050565b5f6060820190506104515f83018661042f565b61045e602083018561042f565b61046b604083018461042f565b949350505050565b5f81519050919050565b5f81905092915050565b5f5b838110156104a4578082015181840152602081019050610489565b5f8484015250505050565b5f6104b982610473565b6104c3818561047d565b93506104d3818560208601610487565b80840191505092915050565b5f6104ea82846104af565b915081905092915050565b5f82825260208201905092915050565b5f61050f82610473565b61051981856104f5565b9350610529818560208601610487565b61053281610201565b840191505092915050565b5f6080820190508181035f8301526105558187610505565b9050610564602083018661042f565b610571604083018561042f565b61057e606083018461042f565b95945050505050565b7f4669726d20646f6573206e6f74206578697374206f7220686173206e6f2064615f8201527f7461000000000000000000000000000000000000000000000000000000000000602082015250565b5f6105e16022836104f5565b91506105ec82610587565b604082019050919050565b5f6020820190508181035f83015261060e816105d5565b905091905056fea26469706673582212207752264cc58dc9022536771bf209892794086d73afa9e402b39022720d6eca8664736f6c63430008150033",
  "immutableReferences": {},
  "source": "// SPDX-License-Identifier: MIT\r\npragma solidity ^0.8.0;\r\n\r\ncontract ESGDataStorage {\r\n    // Struct to store ESG data for a specific firm\r\n    struct ESGData {\r\n        uint256 date; // Unix timestamp\r\n        uint256 carbonEmissions; // Metric tons\r\n        uint256 energyEfficiency; // Percentage\r\n    }\r\n\r\n    // Mapping from firm name to their latest ESG data\r\n    mapping(string => ESGData) private firmESGData;\r\n\r\n    // Event to log when ESG data is updated for a firm\r\n    event ESGDataUpdated(string firmName, uint256 date, uint256 carbonEmissions, uint256 energyEfficiency);\r\n\r\n    // Function to update ESG data for a specific firm\r\n    function updateESGData(\r\n        string memory _firmName,\r\n        uint256 _date,\r\n        uint256 _carbonEmissions,\r\n        uint256 _energyEfficiency\r\n    ) public {\r\n        // Update the firm's ESG data\r\n        firmESGData[_firmName] = ESGData(_date, _carbonEmissions, _energyEfficiency);\r\n        emit ESGDataUpdated(_firmName, _date, _carbonEmissions, _energyEfficiency);\r\n    }\r\n\r\n    // Function to retrieve the latest ESG data for a specific firm\r\n    function getESGData(string memory _firmName)\r\n        public\r\n        view\r\n        returns (uint256 date, uint256 carbonEmissions, uint256 energyEfficiency)\r\n    {\r\n        // Check if the firm name exists in the mapping\r\n        require(firmESGData[_firmName].date != 0, \"Firm does not exist or has no data\");\r\n        ESGData memory data = firmESGData[_firmName];\r\n        return (data.date, data.carbonEmissions, data.energyEfficiency);\r\n    }\r\n}\r\n",
  "sourcePath": "C:\\Users\\cheng\\OneDrive\\Documents\\Programming\\hacker1\\server\\contracts\\ESGDataStorage.sol",
  "compiler": {
    "name": "solc",
    "version": "0.8.21+commit.d9974bed.Emscripten.clang"
  },
  "schemaVersion": "3.4.16",
  "updatedAt": "2025-01-09T01:55:31.593Z",
  "networkType": "ethereum",
  "devdoc": {
    "kind": "dev",
    "methods": {},
    "version": 1
  },
  "userdoc": {
    "kind": "user",
    "methods": {},
    "version": 1
  }
}