{
  "contractName": "FirmContracts",
  "abi": [
    {
      "inputs": [],
      "stateMutability": "nonpayable",
      "type": "constructor"
    },
    {
      "anonymous": false,
      "inputs": [
        {
          "indexed": true,
          "internalType": "string",
          "name": "firmName",
          "type": "string"
        }
      ],
      "name": "ContractCreated",
      "type": "event"
    },
    {
      "anonymous": false,
      "inputs": [
        {
          "indexed": true,
          "internalType": "address",
          "name": "contributor",
          "type": "address"
        },
        {
          "indexed": false,
          "internalType": "uint256",
          "name": "amount",
          "type": "uint256"
        }
      ],
      "name": "FundsDeposited",
      "type": "event"
    },
    {
      "anonymous": false,
      "inputs": [
        {
          "indexed": true,
          "internalType": "string",
          "name": "firmName",
          "type": "string"
        },
        {
          "indexed": true,
          "internalType": "string",
          "name": "itemName",
          "type": "string"
        },
        {
          "indexed": false,
          "internalType": "uint256",
          "name": "milestoneReward",
          "type": "uint256"
        }
      ],
      "name": "MilestoneHit",
      "type": "event"
    },
    {
      "anonymous": false,
      "inputs": [
        {
          "indexed": true,
          "internalType": "string",
          "name": "firmName",
          "type": "string"
        },
        {
          "indexed": true,
          "internalType": "string",
          "name": "itemName",
          "type": "string"
        },
        {
          "indexed": false,
          "internalType": "uint256",
          "name": "newProgress",
          "type": "uint256"
        }
      ],
      "name": "ProgressUpdated",
      "type": "event"
    },
    {
      "inputs": [
        {
          "internalType": "string",
          "name": "",
          "type": "string"
        }
      ],
      "name": "firmContracts",
      "outputs": [
        {
          "internalType": "string",
          "name": "firmName",
          "type": "string"
        }
      ],
      "stateMutability": "view",
      "type": "function",
      "constant": true
    },
    {
      "inputs": [],
      "name": "owner",
      "outputs": [
        {
          "internalType": "address",
          "name": "",
          "type": "address"
        }
      ],
      "stateMutability": "view",
      "type": "function",
      "constant": true
    },
    {
      "inputs": [],
      "name": "totalFunds",
      "outputs": [
        {
          "internalType": "uint256",
          "name": "",
          "type": "uint256"
        }
      ],
      "stateMutability": "view",
      "type": "function",
      "constant": true
    },
    {
      "inputs": [],
      "name": "depositFunds",
      "outputs": [],
      "stateMutability": "payable",
      "type": "function",
      "payable": true
    },
    {
      "inputs": [
        {
          "internalType": "string",
          "name": "firmName",
          "type": "string"
        },
        {
          "components": [
            {
              "internalType": "string",
              "name": "item",
              "type": "string"
            },
            {
              "internalType": "uint256",
              "name": "totalTarget",
              "type": "uint256"
            },
            {
              "internalType": "uint256",
              "name": "totalReward",
              "type": "uint256"
            },
            {
              "internalType": "uint256",
              "name": "progress",
              "type": "uint256"
            },
            {
              "components": [
                {
                  "internalType": "uint256",
                  "name": "target",
                  "type": "uint256"
                },
                {
                  "internalType": "uint256",
                  "name": "reward",
                  "type": "uint256"
                },
                {
                  "internalType": "bool",
                  "name": "completed",
                  "type": "bool"
                }
              ],
              "internalType": "struct FirmContracts.Milestone[]",
              "name": "milestones",
              "type": "tuple[]"
            }
          ],
          "internalType": "struct FirmContracts.ContractItem[]",
          "name": "items",
          "type": "tuple[]"
        }
      ],
      "name": "addContract",
      "outputs": [],
      "stateMutability": "nonpayable",
      "type": "function"
    },
    {
      "inputs": [
        {
          "internalType": "string",
          "name": "firmName",
          "type": "string"
        },
        {
          "internalType": "string",
          "name": "itemName",
          "type": "string"
        },
        {
          "internalType": "uint256",
          "name": "newProgress",
          "type": "uint256"
        }
      ],
      "name": "updateProgress",
      "outputs": [],
      "stateMutability": "nonpayable",
      "type": "function"
    },
    {
      "inputs": [
        {
          "internalType": "string",
          "name": "firmName",
          "type": "string"
        }
      ],
      "name": "getFirmContract",
      "outputs": [
        {
          "components": [
            {
              "internalType": "string",
              "name": "firmName",
              "type": "string"
            },
            {
              "components": [
                {
                  "internalType": "string",
                  "name": "item",
                  "type": "string"
                },
                {
                  "internalType": "uint256",
                  "name": "totalTarget",
                  "type": "uint256"
                },
                {
                  "internalType": "uint256",
                  "name": "totalReward",
                  "type": "uint256"
                },
                {
                  "internalType": "uint256",
                  "name": "progress",
                  "type": "uint256"
                },
                {
                  "components": [
                    {
                      "internalType": "uint256",
                      "name": "target",
                      "type": "uint256"
                    },
                    {
                      "internalType": "uint256",
                      "name": "reward",
                      "type": "uint256"
                    },
                    {
                      "internalType": "bool",
                      "name": "completed",
                      "type": "bool"
                    }
                  ],
                  "internalType": "struct FirmContracts.Milestone[]",
                  "name": "milestones",
                  "type": "tuple[]"
                }
              ],
              "internalType": "struct FirmContracts.ContractItem[]",
              "name": "contractItems",
              "type": "tuple[]"
            }
          ],
          "internalType": "struct FirmContracts.FirmContract",
          "name": "",
          "type": "tuple"
        }
      ],
      "stateMutability": "view",
      "type": "function",
      "constant": true
    }
  ],
  "bytecode": "0x608060405234801561000f575f80fd5b50335f806101000a81548173ffffffffffffffffffffffffffffffffffffffff021916908373ffffffffffffffffffffffffffffffffffffffff160217905550611f9f8061005c5f395ff3fe60806040526004361061006f575f3560e01c80638da5cb5b1161004d5780638da5cb5b1461011357806394945a051461013d578063968ed60014610165578063e2c41dbc1461018f5761006f565b80632f24cfe814610073578063412b10481461009b57806359551566146100d7575b5f80fd5b34801561007e575f80fd5b5061009960048036038101906100949190610f25565b610199565b005b3480156100a6575f80fd5b506100c160048036038101906100bc9190610fad565b6105e2565b6040516100ce919061106e565b60405180910390f35b3480156100e2575f80fd5b506100fd60048036038101906100f89190610fad565b61069a565b60405161010a919061135d565b60405180910390f35b34801561011e575f80fd5b5061012761093e565b60405161013491906113bc565b60405180910390f35b348015610148575f80fd5b50610163600480360381019061015e91906116cb565b610961565b005b348015610170575f80fd5b50610179610c4e565b6040516101869190611750565b60405180910390f35b610197610c54565b005b5f8054906101000a900473ffffffffffffffffffffffffffffffffffffffff1673ffffffffffffffffffffffffffffffffffffffff163373ffffffffffffffffffffffffffffffffffffffff1614610226576040517f08c379a000000000000000000000000000000000000000000000000000000000815260040161021d906117d9565b60405180910390fd5b5f6001846040516102379190611831565b908152602001604051809103902090505f815f01805461025690611874565b905011610298576040517f08c379a000000000000000000000000000000000000000000000000000000000815260040161028f906118ee565b60405180910390fd5b5f805b826001018054905081101561059a575f8360010182815481106102c1576102c061190c565b5b905f5260205f2090600502019050856040516020016102e09190611831565b60405160208183030381529060405280519060200120815f0160405160200161030991906119cb565b6040516020818303038152906040528051906020012003610586578060030154851161036a576040517f08c379a000000000000000000000000000000000000000000000000000000000815260040161036190611a2b565b60405180910390fd5b848160030181905550856040516103819190611831565b6040518091039020876040516103979190611831565b60405180910390207f3c8a81caac2917329745f1a70168d3c00e2e941a2e547ec3891e9eeaee15c0d3876040516103ce9190611750565b60405180910390a35f5b816004018054905081101561057b575f8260040182815481106103fe576103fd61190c565b5b905f5260205f2090600302019050806002015f9054906101000a900460ff161580156104315750805f0154836003015410155b15610567576001816002015f6101000a81548160ff0219169083151502179055506002548160010154111561049b576040517f08c379a000000000000000000000000000000000000000000000000000000000815260040161049290611a93565b60405180910390fd5b806001015460025f8282546104b09190611ade565b925050819055503373ffffffffffffffffffffffffffffffffffffffff166108fc826001015490811502906040515f60405180830381858888f193505050501580156104fe573d5f803e3d5ffd5b508760405161050d9190611831565b6040518091039020896040516105239190611831565b60405180910390207fadc8344aadf9589b5722f02fdc2f8982575414f8e523032ca37a61285cabb514836001015460405161055e9190611750565b60405180910390a35b50808061057390611b11565b9150506103d8565b50600192505061059a565b50808061059290611b11565b91505061029b565b50806105db576040517f08c379a00000000000000000000000000000000000000000000000000000000081526004016105d290611bc8565b60405180910390fd5b5050505050565b6001818051602081018201805184825260208301602085012081835280955050505050505f91509050805f01805461061990611874565b80601f016020809104026020016040519081016040528092919081815260200182805461064590611874565b80156106905780601f1061066757610100808354040283529160200191610690565b820191905f5260205f20905b81548152906001019060200180831161067357829003601f168201915b5050505050905081565b6106a2610d8b565b5f6001836040516106b39190611831565b90815260200160405180910390206040518060400160405290815f820180546106db90611874565b80601f016020809104026020016040519081016040528092919081815260200182805461070790611874565b80156107525780601f1061072957610100808354040283529160200191610752565b820191905f5260205f20905b81548152906001019060200180831161073557829003601f168201915b5050505050815260200160018201805480602002602001604051908101604052809291908181526020015f905b828210156108e5578382905f5260205f2090600502016040518060a00160405290815f820180546107af90611874565b80601f01602080910402602001604051908101604052809291908181526020018280546107db90611874565b80156108265780601f106107fd57610100808354040283529160200191610826565b820191905f5260205f20905b81548152906001019060200180831161080957829003601f168201915b5050505050815260200160018201548152602001600282015481526020016003820154815260200160048201805480602002602001604051908101604052809291908181526020015f905b828210156108ce578382905f5260205f2090600302016040518060600160405290815f820154815260200160018201548152602001600282015f9054906101000a900460ff16151515158152505081526020019060010190610871565b50505050815250508152602001906001019061077f565b505050508152505090505f815f01515111610935576040517f08c379a000000000000000000000000000000000000000000000000000000000815260040161092c906118ee565b60405180910390fd5b80915050919050565b5f8054906101000a900473ffffffffffffffffffffffffffffffffffffffff1681565b5f8054906101000a900473ffffffffffffffffffffffffffffffffffffffff1673ffffffffffffffffffffffffffffffffffffffff163373ffffffffffffffffffffffffffffffffffffffff16146109ee576040517f08c379a00000000000000000000000000000000000000000000000000000000081526004016109e5906117d9565b60405180910390fd5b5f6001836040516109ff9190611831565b90815260200160405180910390205f018054610a1a90611874565b905014610a5c576040517f08c379a0000000000000000000000000000000000000000000000000000000008152600401610a5390611c56565b60405180910390fd5b5f600183604051610a6d9190611831565b9081526020016040518091039020905082815f019081610a8d9190611dff565b505f5b8251811015610c06575f838281518110610aad57610aac61190c565b5b602002602001015190505f8360010160018160018154018082558091505003905f5260205f2090600502019050815f0151815f019081610aed9190611dff565b5081602001518160010181905550816040015181600201819055505f81600301819055505f5b826080015151811015610bf05781600401604051806060016040528085608001518481518110610b4657610b4561190c565b5b60200260200101515f0151815260200185608001518481518110610b6d57610b6c61190c565b5b60200260200101516020015181526020015f1515815250908060018154018082558091505060019003905f5260205f2090600302015f909190919091505f820151815f0155602082015181600101556040820151816002015f6101000a81548160ff02191690831515021790555050508080610be890611b11565b915050610b13565b5050508080610bfe90611b11565b915050610a90565b5082604051610c159190611831565b60405180910390207f7b174fde5a38b2f0622581c8f5c5f408319fe50a24a4b6ba2220b747eba9542a60405160405180910390a2505050565b60025481565b5f8054906101000a900473ffffffffffffffffffffffffffffffffffffffff1673ffffffffffffffffffffffffffffffffffffffff163373ffffffffffffffffffffffffffffffffffffffff1614610ce1576040517f08c379a0000000000000000000000000000000000000000000000000000000008152600401610cd8906117d9565b60405180910390fd5b5f3411610d23576040517f08c379a0000000000000000000000000000000000000000000000000000000008152600401610d1a90611f18565b60405180910390fd5b3460025f828254610d349190611f36565b925050819055503373ffffffffffffffffffffffffffffffffffffffff167f543ba50a5eec5e6178218e364b1d0f396157b3c8fa278522c2cb7fd99407d47434604051610d819190611750565b60405180910390a2565b604051806040016040528060608152602001606081525090565b5f604051905090565b5f80fd5b5f80fd5b5f80fd5b5f80fd5b5f601f19601f8301169050919050565b7f4e487b71000000000000000000000000000000000000000000000000000000005f52604160045260245ffd5b610e0482610dbe565b810181811067ffffffffffffffff82111715610e2357610e22610dce565b5b80604052505050565b5f610e35610da5565b9050610e418282610dfb565b919050565b5f67ffffffffffffffff821115610e6057610e5f610dce565b5b610e6982610dbe565b9050602081019050919050565b828183375f83830152505050565b5f610e96610e9184610e46565b610e2c565b905082815260208101848484011115610eb257610eb1610dba565b5b610ebd848285610e76565b509392505050565b5f82601f830112610ed957610ed8610db6565b5b8135610ee9848260208601610e84565b91505092915050565b5f819050919050565b610f0481610ef2565b8114610f0e575f80fd5b50565b5f81359050610f1f81610efb565b92915050565b5f805f60608486031215610f3c57610f3b610dae565b5b5f84013567ffffffffffffffff811115610f5957610f58610db2565b5b610f6586828701610ec5565b935050602084013567ffffffffffffffff811115610f8657610f85610db2565b5b610f9286828701610ec5565b9250506040610fa386828701610f11565b9150509250925092565b5f60208284031215610fc257610fc1610dae565b5b5f82013567ffffffffffffffff811115610fdf57610fde610db2565b5b610feb84828501610ec5565b91505092915050565b5f81519050919050565b5f82825260208201905092915050565b5f5b8381101561102b578082015181840152602081019050611010565b5f8484015250505050565b5f61104082610ff4565b61104a8185610ffe565b935061105a81856020860161100e565b61106381610dbe565b840191505092915050565b5f6020820190508181035f8301526110868184611036565b905092915050565b5f82825260208201905092915050565b5f6110a882610ff4565b6110b2818561108e565b93506110c281856020860161100e565b6110cb81610dbe565b840191505092915050565b5f81519050919050565b5f82825260208201905092915050565b5f819050602082019050919050565b61110881610ef2565b82525050565b5f81519050919050565b5f82825260208201905092915050565b5f819050602082019050919050565b5f8115159050919050565b61114b81611137565b82525050565b606082015f8201516111655f8501826110ff565b50602082015161117860208501826110ff565b50604082015161118b6040850182611142565b50505050565b5f61119c8383611151565b60608301905092915050565b5f602082019050919050565b5f6111be8261110e565b6111c88185611118565b93506111d383611128565b805f5b838110156112035781516111ea8882611191565b97506111f5836111a8565b9250506001810190506111d6565b5085935050505092915050565b5f60a083015f8301518482035f86015261122a828261109e565b915050602083015161123f60208601826110ff565b50604083015161125260408601826110ff565b50606083015161126560608601826110ff565b506080830151848203608086015261127d82826111b4565b9150508091505092915050565b5f6112958383611210565b905092915050565b5f602082019050919050565b5f6112b3826110d6565b6112bd81856110e0565b9350836020820285016112cf856110f0565b805f5b8581101561130a57848403895281516112eb858261128a565b94506112f68361129d565b925060208a019950506001810190506112d2565b50829750879550505050505092915050565b5f604083015f8301518482035f860152611336828261109e565b9150506020830151848203602086015261135082826112a9565b9150508091505092915050565b5f6020820190508181035f830152611375818461131c565b905092915050565b5f73ffffffffffffffffffffffffffffffffffffffff82169050919050565b5f6113a68261137d565b9050919050565b6113b68161139c565b82525050565b5f6020820190506113cf5f8301846113ad565b92915050565b5f67ffffffffffffffff8211156113ef576113ee610dce565b5b602082029050602081019050919050565b5f80fd5b5f80fd5b5f80fd5b5f67ffffffffffffffff82111561142657611425610dce565b5b602082029050602081019050919050565b61144081611137565b811461144a575f80fd5b50565b5f8135905061145b81611437565b92915050565b5f6060828403121561147657611475611404565b5b6114806060610e2c565b90505f61148f84828501610f11565b5f8301525060206114a284828501610f11565b60208301525060406114b68482850161144d565b60408301525092915050565b5f6114d46114cf8461140c565b610e2c565b905080838252602082019050606084028301858111156114f7576114f6611400565b5b835b81811015611520578061150c8882611461565b8452602084019350506060810190506114f9565b5050509392505050565b5f82601f83011261153e5761153d610db6565b5b813561154e8482602086016114c2565b91505092915050565b5f60a0828403121561156c5761156b611404565b5b61157660a0610e2c565b90505f82013567ffffffffffffffff81111561159557611594611408565b5b6115a184828501610ec5565b5f8301525060206115b484828501610f11565b60208301525060406115c884828501610f11565b60408301525060606115dc84828501610f11565b606083015250608082013567ffffffffffffffff811115611600576115ff611408565b5b61160c8482850161152a565b60808301525092915050565b5f61162a611625846113d5565b610e2c565b9050808382526020820190506020840283018581111561164d5761164c611400565b5b835b8181101561169457803567ffffffffffffffff81111561167257611671610db6565b5b80860161167f8982611557565b8552602085019450505060208101905061164f565b5050509392505050565b5f82601f8301126116b2576116b1610db6565b5b81356116c2848260208601611618565b91505092915050565b5f80604083850312156116e1576116e0610dae565b5b5f83013567ffffffffffffffff8111156116fe576116fd610db2565b5b61170a85828601610ec5565b925050602083013567ffffffffffffffff81111561172b5761172a610db2565b5b6117378582860161169e565b9150509250929050565b61174a81610ef2565b82525050565b5f6020820190506117635f830184611741565b92915050565b7f4f6e6c7920746865206f776e65722063616e20706572666f726d2074686973205f8201527f616374696f6e2e00000000000000000000000000000000000000000000000000602082015250565b5f6117c3602783610ffe565b91506117ce82611769565b604082019050919050565b5f6020820190508181035f8301526117f0816117b7565b9050919050565b5f81905092915050565b5f61180b82610ff4565b61181581856117f7565b935061182581856020860161100e565b80840191505092915050565b5f61183c8284611801565b915081905092915050565b7f4e487b71000000000000000000000000000000000000000000000000000000005f52602260045260245ffd5b5f600282049050600182168061188b57607f821691505b60208210810361189e5761189d611847565b5b50919050565b7f4669726d20646f6573206e6f742065786973742e0000000000000000000000005f82015250565b5f6118d8601483610ffe565b91506118e3826118a4565b602082019050919050565b5f6020820190508181035f830152611905816118cc565b9050919050565b7f4e487b71000000000000000000000000000000000000000000000000000000005f52603260045260245ffd5b5f819050815f5260205f209050919050565b5f815461195781611874565b61196181866117f7565b9450600182165f811461197b5760018114611990576119c2565b60ff19831686528115158202860193506119c2565b61199985611939565b5f5b838110156119ba5781548189015260018201915060208101905061199b565b838801955050505b50505092915050565b5f6119d6828461194b565b915081905092915050565b7f50726f6772657373206d75737420696e6372656173652e0000000000000000005f82015250565b5f611a15601783610ffe565b9150611a20826119e1565b602082019050919050565b5f6020820190508181035f830152611a4281611a09565b9050919050565b7f4e6f7420656e6f7567682066756e647320746f2072656c656173652e000000005f82015250565b5f611a7d601c83610ffe565b9150611a8882611a49565b602082019050919050565b5f6020820190508181035f830152611aaa81611a71565b9050919050565b7f4e487b71000000000000000000000000000000000000000000000000000000005f52601160045260245ffd5b5f611ae882610ef2565b9150611af383610ef2565b9250828203905081811115611b0b57611b0a611ab1565b5b92915050565b5f611b1b82610ef2565b91507fffffffffffffffffffffffffffffffffffffffffffffffffffffffffffffffff8203611b4d57611b4c611ab1565b5b600182019050919050565b7f4974656d206e6f7420666f756e6420696e20746865206669726d277320636f6e5f8201527f74726163742e0000000000000000000000000000000000000000000000000000602082015250565b5f611bb2602683610ffe565b9150611bbd82611b58565b604082019050919050565b5f6020820190508181035f830152611bdf81611ba6565b9050919050565b7f436f6e747261637420616c72656164792065786973747320666f7220746869735f8201527f206669726d2e0000000000000000000000000000000000000000000000000000602082015250565b5f611c40602683610ffe565b9150611c4b82611be6565b604082019050919050565b5f6020820190508181035f830152611c6d81611c34565b9050919050565b5f6020601f8301049050919050565b5f82821b905092915050565b5f60088302611cbe7fffffffffffffffffffffffffffffffffffffffffffffffffffffffffffffffff82611c83565b611cc88683611c83565b95508019841693508086168417925050509392505050565b5f819050919050565b5f611d03611cfe611cf984610ef2565b611ce0565b610ef2565b9050919050565b5f819050919050565b611d1c83611ce9565b611d30611d2882611d0a565b848454611c8f565b825550505050565b5f90565b611d44611d38565b611d4f818484611d13565b505050565b5b81811015611d7257611d675f82611d3c565b600181019050611d55565b5050565b601f821115611db757611d8881611939565b611d9184611c74565b81016020851015611da0578190505b611db4611dac85611c74565b830182611d54565b50505b505050565b5f82821c905092915050565b5f611dd75f1984600802611dbc565b1980831691505092915050565b5f611def8383611dc8565b9150826002028217905092915050565b611e0882610ff4565b67ffffffffffffffff811115611e2157611e20610dce565b5b611e2b8254611874565b611e36828285611d76565b5f60209050601f831160018114611e67575f8415611e55578287015190505b611e5f8582611de4565b865550611ec6565b601f198416611e7586611939565b5f5b82811015611e9c57848901518255600182019150602085019450602081019050611e77565b86831015611eb95784890151611eb5601f891682611dc8565b8355505b6001600288020188555050505b505050505050565b7f46756e6473206d7573742062652067726561746572207468616e20302e0000005f82015250565b5f611f02601d83610ffe565b9150611f0d82611ece565b602082019050919050565b5f6020820190508181035f830152611f2f81611ef6565b9050919050565b5f611f4082610ef2565b9150611f4b83610ef2565b9250828201905080821115611f6357611f62611ab1565b5b9291505056fea26469706673582212206f58616f83fbb36d02033596a5638f22b32df6f45175c9b9baa81519a3cd602864736f6c63430008150033",
  "immutableReferences": {},
  "source": "// SPDX-License-Identifier: MIT\r\npragma solidity ^0.8.0;\r\n\r\ncontract FirmContracts {\r\n    address public owner;\r\n\r\n    struct Milestone {\r\n        uint256 target;         // Target to achieve (e.g., 20 trees)\r\n        uint256 reward;         // Reward in ETH\r\n        bool completed;         // Completion status\r\n    }\r\n\r\n    struct ContractItem {\r\n        string item;            // Item name (e.g., \"tree\", \"turbine\")\r\n        uint256 totalTarget;    // Total target progress (e.g., 100 trees)\r\n        uint256 totalReward;    // Total reward for the item\r\n        uint256 progress;       // Current progress (e.g., 50 trees planted)\r\n        Milestone[] milestones; // Array of milestones for this item\r\n    }\r\n\r\n    struct FirmContract {\r\n        string firmName;              // Firm's name\r\n        ContractItem[] contractItems; // List of contract items\r\n    }\r\n\r\n    mapping(string => FirmContract) public firmContracts; // firmName => FirmContract\r\n    uint256 public totalFunds; // Total funds deposited into the contract\r\n\r\n    event FundsDeposited(address indexed contributor, uint256 amount);\r\n    event ContractCreated(string indexed firmName);\r\n    event ProgressUpdated(string indexed firmName, string indexed itemName, uint256 newProgress);\r\n    event MilestoneHit(string indexed firmName, string indexed itemName, uint256 milestoneReward);\r\n\r\n    constructor() {\r\n        owner = msg.sender;\r\n    }\r\n\r\n    modifier onlyOwner() {\r\n        require(msg.sender == owner, \"Only the owner can perform this action.\");\r\n        _;\r\n    }\r\n\r\n    function depositFunds() public payable onlyOwner {\r\n        require(msg.value > 0, \"Funds must be greater than 0.\");\r\n        totalFunds += msg.value;\r\n        emit FundsDeposited(msg.sender, msg.value);\r\n    }\r\n\r\n    function addContract(\r\n        string memory firmName,\r\n        ContractItem[] memory items\r\n    ) public onlyOwner {\r\n        require(bytes(firmContracts[firmName].firmName).length == 0, \"Contract already exists for this firm.\");\r\n\r\n        FirmContract storage newContract = firmContracts[firmName];\r\n        newContract.firmName = firmName;\r\n\r\n        for (uint256 i = 0; i < items.length; i++) {\r\n            ContractItem memory item = items[i];\r\n\r\n            ContractItem storage newItem = newContract.contractItems.push();\r\n            newItem.item = item.item;\r\n            newItem.totalTarget = item.totalTarget;\r\n            newItem.totalReward = item.totalReward;\r\n            newItem.progress = 0;\r\n\r\n            for (uint256 j = 0; j < item.milestones.length; j++) {\r\n                newItem.milestones.push(\r\n                    Milestone({\r\n                        target: item.milestones[j].target,\r\n                        reward: item.milestones[j].reward,\r\n                        completed: false\r\n                    })\r\n                );\r\n            }\r\n        }\r\n\r\n        emit ContractCreated(firmName);\r\n    }\r\n\r\n\r\n    function updateProgress(\r\n        string memory firmName,\r\n        string memory itemName,\r\n        uint256 newProgress\r\n    ) public onlyOwner {\r\n        FirmContract storage firmContract = firmContracts[firmName];\r\n        require(bytes(firmContract.firmName).length > 0, \"Firm does not exist.\");\r\n\r\n        bool itemFound = false;\r\n        for (uint256 i = 0; i < firmContract.contractItems.length; i++) {\r\n            ContractItem storage item = firmContract.contractItems[i];\r\n            if (keccak256(abi.encodePacked(item.item)) == keccak256(abi.encodePacked(itemName))) {\r\n                require(newProgress > item.progress, \"Progress must increase.\");\r\n                item.progress = newProgress;\r\n                emit ProgressUpdated(firmName, itemName, newProgress);\r\n\r\n                // Check milestones\r\n                for (uint256 j = 0; j < item.milestones.length; j++) {\r\n                    Milestone storage milestone = item.milestones[j];\r\n                    if (!milestone.completed && item.progress >= milestone.target) {\r\n                        milestone.completed = true;\r\n                        require(milestone.reward <= totalFunds, \"Not enough funds to release.\");\r\n                        totalFunds -= milestone.reward;\r\n                        payable(msg.sender).transfer(milestone.reward);\r\n                        emit MilestoneHit(firmName, itemName, milestone.reward);\r\n                    }\r\n                }\r\n\r\n                itemFound = true;\r\n                break;\r\n            }\r\n        }\r\n\r\n        require(itemFound, \"Item not found in the firm's contract.\");\r\n    }\r\n\r\n    function getFirmContract(string memory firmName) public view returns (FirmContract memory) {\r\n        FirmContract memory firmContract = firmContracts[firmName];\r\n        require(bytes(firmContract.firmName).length > 0, \"Firm does not exist.\");\r\n        return firmContract;\r\n    }\r\n}\r\n",
  "sourcePath": "C:\\Users\\cheng\\OneDrive\\Documents\\Programming\\hacker1\\server\\contracts\\FirmContracts.sol",
  "compiler": {
    "name": "solc",
    "version": "0.8.21+commit.d9974bed.Emscripten.clang"
  },
  "schemaVersion": "3.4.16",
  "updatedAt": "2025-01-10T04:49:45.048Z",
  "networkType": "ethereum",
  "devdoc": {
    "kind": "dev",
    "methods": {},
    "version": 1
  },
  "userdoc": {
    "kind": "user",
    "methods": {},
    "version": 1
  }
}